:020000040800F2
:100000000020002095130008311300083313000866
:1000100035130008371300083913000800000000EA
:100020000000000000000000000000003B1300087A
:100030003D130008000000003F13000841130008B2
:10004000DD130008DD130008DD130008DD130008D0
:10005000DD130008DD130008DD130008DD130008C0
:10006000DD130008DD130008DD130008DD130008B0
:10007000DD130008DD130008DD130008DD130008A0
:10008000DD130008DD130008DD1300080000000088
:10009000000000000000000000000000DD13000868
:1000A000DD130008DD130008DD130008DD13000870
:1000B000DD130008DD130008DD130008DD13000860
:1000C000DD1300080000000000000000DD13000840
:1000D000DD130008DD130008DD130008DD13000840
:1000E000DD130008DD130008DD1300080000000028
:1000F0000000000000000000000000000000000000
:1001000000000000000000000000000000000000EF
:100110000000000000000000DD130008DD130008EF
:1001200000000000000000000000000000000000CF
:1001300000000000000000000000000000000000BF
:1001400000000000000000000000000000000000AF
:10015000000000000000000000000000000000009F
:10016000000000000000000000000000000000008F
:10017000000000000000000000000000000000007F
:10018000000000000000000000000000000000006F
:10019000000000000000000000000000000000005F
:1001A000000000000000000000000000000000004F
:1001B000000000000000000000000000000000003F
:1001C0000000000000000000000000005FF808F1DF
:1001D00010B5054C237833B9044B13B10448AFF381
:1001E00000800123237010BD0C00002000000000DF
:1001F000EC14000808B5034B1BB103490348AFF3E7
:10020000008008BD0000000010000020EC14000871
:10021000034613F8012B002AFBD1181A0138704746
:1002200038B50E4B054618784FF47A73B3FBF0F3EC
:100230000B4A1068B0FBF3F000F08CF8044658B994
:100240000F2D09D8024629464FF0FF3000F04EF836
:10025000044B20461D6038BD012038BD0000002041
:10026000080000200400002008B5032000F02CF84E
:100270000020FFF7D5FF01F007F8002008BD0000BF
:10028000034A044B11681B780B441360704700BF8E
:100290002800002000000020014B1868704700BFB4
:1002A0002800002038B50446FFF7F6FF0546631C1A
:1002B0001EBF044B1B78E418FFF7EEFF401B84427F
:1002C000FAD838BD00000020074A0002D36800F4C5
:1002D000E06023F4E0631B041B0C43F0BF6343F4B2
:1002E00000330343D360704700ED00E0174B30B597
:1002F000DC68C4F30224C4F10703251D042B28BFC6
:100300000423062D4FF0010598BF002405FA03F3DE
:1003100003F1FF3388BF033C1940A14005FA04F400
:10032000013C2240002842EA01024FEA0212A9BF22
:1003300000F16040064BD2B200F56140BBBF00F057
:100340000F00D2B280F800231A5430BD00ED00E057
:1003500014ED00E00138B0F1807F0AD2F021064BA5
:10036000064A586082F823100020072298601A601D
:1003700070470120704700BF10E000E000ED00E092
:100380002DE9F74F00242646664BDFF8A8E1DFF899
:10039000A8C10A6832FA06F502D103B0BDE8F08FB1
:1003A0004FF0010808FA06F802EA080290457FD1EA
:1003B0004D68122D00F0AA8000F28380022D00F01B
:1003C000A28077D8002D00F08980012D00F099805F
:1003D0004FF00F09FF2A93BF824606F18045083D82
:1003E000D0F800B092BFB500D0F804B0AD0009FA63
:1003F00005F82BEA080804FA05F588BF00F1040A9D
:1004000048EA0505CAF80050D1F804A01AF0805F48
:100410004ED0454D444FAD6926F0030845F0010527
:10042000BD61BD6908F1804805F00105019508F539
:10043000803806F0030B019D4FEA8B0BD8F808506B
:1004400009FA0BF925EA0909384DA84263D005F5E8
:100450008065A84261D005F58065A8425FD005F5AA
:100460008065A8420CBF0325042505FA0BF545EA73
:100470000905C8F808501D681AF4803F14BF1543D9
:1004800095431D605D681AF4003F14BF1543954302
:100490005D609D681AF4801F14BF154395439D60ED
:1004A000DD681AF4001F14BF2A4325EA0202DA604D
:1004B00001366EE7032D22D0112D89D1CC6804348A
:1004C00086E71B4FBD4209D012D8DFF870904D452A
:1004D00004D009F580394D457FF47AAF8C68C4B1FA
:1004E000012C0CBFC0F81080C0F8148008246FE7FE
:1004F0007545F3D06545F1D0DFF84490EBE7002473
:1005000066E7CC6864E7CC68083461E7CC680C34F3
:100510005EE704245CE70025A7E70125A5E702259F
:10052000A3E700BF000401400010024000080140A2
:1005300000002110000031100000321000001110E6
:10054000000022108368194214BF01200020704768
:100550000AB1016170470904FBE7016800224B6999
:1005600013F4806310D06FF480634B612023026327
:1005700080F83D3080F83E20036C80F83C2043F04A
:100580000403036401207047184670472DE9F843BF
:10059000044617469946C1F307488EB22568B8F15C
:1005A000010F0CBF6B69AB6936EA030314BF01206E
:1005B000002008B9BDE8F8836B695A0516D52B6889
:1005C000202243F400732B606FF480636B6100237F
:1005D000236384F83D2084F83E30226C42F004020C
:1005E000226484F83C300120BDE8F8837B1CD5D020
:1005F000FFF752FEA0EB0900874201D3002FCDD1B7
:1006000000232022236384F83D2084F83E30226CAE
:1006100042F02002E4E770B504460D461646236812
:100620005B695B0701D5002070BD2046FFF795FF91
:10063000A8B96A1CF3D0FFF72FFE801B854201D3B7
:10064000002DECD100232022236384F83D2084F880
:100650003E30226C84F83C3042F0200222640120BB
:1006600070BD2DE9F843044690461F46089EC1F32D
:1006700007498DB22368B9F1010F0CBF5B699B6913
:1006800035EA03030CBF01230023434502D00020B9
:10069000BDE8F8837B1CEDD0FFF7FEFD801B874291
:1006A00001D3002FE6D100232022236384F83D20CC
:1006B00084F83E30226C84F83C3042F02002226400
:1006C0000120BDE8F88370B504460D461646236840
:1006D0005B691B0601D5002070BD2046FFF73DFF7A
:1006E000A8B96A1CF3D0FFF7D7FD801B854201D360
:1006F000002DECD100232022236384F83D2084F8D0
:100700003E30226C84F83C3042F02002226401200A
:1007100070BD000070B5044608B9012070BD90F8A6
:100720003D3003F0FF021BB980F83C2000F0CEFD05
:100730002423226884F83D30136823F001031360FA
:1007400000F0ACFB6568414B9D424DD8404B984250
:10075000E3D940492268B0FBF1F1536823F03F032D
:100760000B435360136A23F03F03013119431162B5
:10077000D169364B21F44F419D4221F0FF0100F138
:10078000FF3048D86D00B0FBF5F00130C0F30B032B
:10079000042B38BF04230B43D3611168206AE3693B
:1007A00021F0C00103430B4313609168E0682369A3
:1007B00021F40341034321F0FF010B439360D1680F
:1007C000A069636921F0FF0103430B43D360136801
:1007D000002043F0010313602023206484F83D309F
:1007E000206384F83E0070BD1B4B984295D9194E8A
:1007F0004FF49671B0FBF6F622687143536823F00C
:100800003F0333434FF47A765360136AB1FBF6F13A
:1008100023F03F03A9E7A36853B905EB4503B0FBF9
:10082000F3F0431CC3F30B036BB143F40043B2E793
:1008300019236B43B0FBF3F0431CC3F30B0313B159
:1008400043F44043A7E70123A5E700BFA0860100CA
:100850007F841E0040420F00FF083D002DE9FF414C
:1008600004461F460D469046FFF716FD94F83D30AE
:100870000646202B04D00225284604B0BDE8F081AE
:1008800000901923012258492046FFF7EAFE00286C
:10089000F1D194F83C30012BEDD0012384F83C30A9
:1008A00023681A68D2075EBF1A6842F001021A6014
:1008B0001A6822F400621A60212284F83D20102276
:1008C00084F83E20002222646785628DC4F824806B
:1008D0002285464AE262E26A082A04D0012A02D04E
:1008E00012F5803F04D11A6842F480721A6002E067
:1008F000226B122AF7D000960A9B00224FF00111BA
:100900002046FFF7AEFE08B10125B5E7236922684E
:10091000B3F5804F13D105F0FE05156133460A9AF1
:1009200033492046FFF732FE05460028ECD1236804
:1009300003905A6903929B690393039B44E0EB1174
:1009400003F0060343F0F00313612A4933460A9A81
:100950002046FFF71BFE0028D6D12368EDB21D61AB
:10096000DCE732460A992046FFF7ADFE40B1236C22
:10097000042B01BF2268136843F400731360C3E7BC
:10098000636A20681A4612F8011B01616262628D77
:10099000013A92B26285228D4769511E89B27F0762
:1009A00021850AD549B15978023301616362638DAB
:1009B000023A013B9BB26385228532460A99204662
:1009C000FFF729FE0028D2D1238D002BC9D1216841
:1009D0000A6842F400720A60202284F83C3084F8ED
:1009E0003D2084F83E3047E7020010000000FFFF82
:1009F00002000100080001002DE9F341054608B995
:100A000001203CE00368DB0710D42B689F075DD40E
:100A10002B68190700F194802B685A0700F1BE80FB
:100A2000E869002840F02C81002028E08F4C6368A2
:100A300003F00C03042B07D0636803F00C03082BAE
:100A400009D16368DE0306D523689C03DDD56B6896
:100A5000002BDAD1D4E76B68B3F5803F12D123685D
:100A600043F480332360FFF717FC0646236898039E
:100A7000CBD4FFF711FC801B6428F7D9032002B008
:100A8000BDE8F0819BB9236823F480332360236899
:100A900023F480232360FFF7FFFB064623689903B6
:100AA000B3D5FFF7F9FB801B6428F7D9E6E7B3F568
:100AB000A02F236803D143F480232360CFE723F4DE
:100AC00080332360236823F48023CBE7674C63687B
:100AD00013F00C0F07D0636803F00C03082B10D140
:100AE0006368DA030DD423689B0702D52B69012BB9
:100AF00086D123686A6923F0F80343EAC2032360BE
:100B000086E72A695A4B6AB101221A60FFF7C4FBD3
:100B1000064623689F07ECD4FFF7BEFB801B022824
:100B2000F7D9ABE71A60FFF7B7FB064623689807CB
:100B30007FF56EAFFFF7B0FB801B0228F6D99DE76B
:100B4000AA694A4C4B4BDAB101221A60FFF7A4FBA9
:100B50000646636A9B070DD54FF4FA52464B1B6855
:100B6000B3FBF2F3019300BF019B5A1E0192002BCD
:100B7000F9D151E7FFF790FB801B0228E9D97DE707
:100B80001A60FFF789FB0646636A9F077FF544AF4B
:100B9000FFF782FB801B0228F6D96FE7334CE3692D
:100BA000D80024D40127E36943F08053E361E3696B
:100BB00003F080530093009B304E3368D90518D55D
:100BC000EB68012B26D1236A43F001032362FFF770
:100BD00063FB41F288368046236A9B073FD5002F8E
:100BE0003FF41EAFE36923F08053E36118E7002769
:100BF000E2E7336843F480733360FFF74DFB8046D0
:100C00003368DA05DCD4FFF747FBA0EB0800642863
:100C1000F6D933E7ABB9236A41F2883823F00103F0
:100C20002362236A23F004032362FFF735FB0646A1
:100C3000236A9807D3D5FFF72FFB801B4045F7D9D0
:100C40001CE7052B236A03D143F004032362BAE7B0
:100C500023F001032362236A23F00403B6E7FFF7BE
:100C60001BFBA0EB0800B042B6D907E7001002401A
:100C70000000424280044242080000200070004010
:100C80002A4B5A681C4602F00C02082A3DD0002369
:100C9000274E022833602BD1FFF7FEFA0746236860
:100CA00099011FD42B6AB3F5803F05D1E26AA96888
:100CB00022F00F020A43E262696A62680B4322F47F
:100CC00074121343636001233360FFF7E5FA0546AE
:100CD00023689A013FF5A8AEFFF7DEFA401B022811
:100CE000F6D9CBE6FFF7D8FAC01B0228D7D9C5E65C
:100CF000FFF7D2FA054623689B017FF595AEFFF713
:100D0000CBFA401B0228F6D9B8E601283FF4B7AE6B
:100D100058682B6A00F480329A427FF471AE6B6A95
:100D200000F47010C01A18BF0120A8E6001002409D
:100D30006000424230B589B06C461B4B03F1100590
:100D4000224618685968083303C2AB421446F7D1EB
:100D5000164B04AC03F11005224618685968083395
:100D600003C2AB421446F7D111494B6803F00C02A1
:100D7000082A17D1C3F3834208A80244DB0312F800
:100D8000202C0CD5CB6A0B4803F00F03504308AA64
:100D9000134413F8103CB0FBF3F009B030BD064823
:100DA0005043FAE70348F8E7041500081415000853
:100DB0000010024000127A0000093D00F8B5054617
:100DC00008B90120F8BD0268304C12F0020F11D0B2
:100DD000570742BF636843F4E0636360160742BF8E
:100DE000636843F4605363606368816823F0F003D1
:100DF0000B436360D0071BD42A6851073FD4130705
:100E000006D563682A6923F4605343EAC20363602A
:100E1000FFF790FF63681E4AC3F30313D35CD84007
:100E20001C4B18601C4B1868FFF7FAF90020F8BD3E
:100E30006A682368012A1AD113F4003FC1D063689D
:100E400041F2883723F0030313436360FFF724FA6A
:100E5000064663686A6803F00C03B3EB820FCBD0DD
:100E6000FFF71AFA801BB842F3D90320F8BD022A13
:100E700002D113F0007FE1E713F0020FDEE76368B1
:100E8000E96823F4E0630B436360B8E700100240B5
:100E90005D1500080800002004000020044B054AEE
:100EA0005B68C3F30223D35C034A1068D8407047E1
:100EB000001002406D150008080000201FB500F06A
:100EC000F003000143F00C02C0B243F008038DF8B8
:100ED0000D3040F00C038DF80E30642340F0080014
:100EE0008DF80C208DF80F00009303AA04234E21E7
:100EF0000248FFF7B3FC05B05DF804FB2C000020AE
:100F00001FB500F0F003000143F00D02C0B243F042
:100F100009038DF80D3040F00D038DF80E30642379
:100F200040F009008DF80C208DF80F00009303AA03
:100F300004234E210248FFF791FC05B05DF804FB45
:100F40002C00002010B58020FFF7B8FF4624202099
:100F5000FFF7D6FF013CFAD110BD20B1012805D022
:100F6000C8B2FFF7ABBF41F08001F9E741F0C00123
:100F7000F6E708B53220FFF795F93020FFF79EFF1E
:100F80000520FFF78FF93020FFF798FF0120FFF7CA
:100F900089F93020FFF792FF0A20FFF783F920201C
:100FA000FFF78CFF0A20FFF77DF92820FFF786FF67
:100FB0000120FFF777F90820FFF780FF0120FFF7F6
:100FC00071F90120FFF77AFF0120FFF76BF901208B
:100FD000FFF768F90620FFF771FF0120FFF762F9BC
:100FE000BDE808400C20FFF769BF10B5441E14F897
:100FF000010F00B910BDFFF783FFF8E70346002299
:10100000543043F8042B834200D1704743F8042B3B
:10101000F9E70000F8B5002405462746074E0748C3
:10102000FFF7F6F8A04206D82846BDE8F8400A22A5
:10103000024900F011BAA7550134F0E78000002002
:1010400000212DE9F843002581460846FFF785FF7A
:101050002E4609F1040809F15409C84501D1BDE83B
:10106000F88358F8044B002CF9D02046FFF7D0F84D
:101070003044102821D905BB2746C6F110053B1B7B
:101080009D4210DC00210120FFF767FF2544204628
:10109000FFF7BEF82B1B83420AD301252046FFF73A
:1010A000B7F80644D9E717F8010BFFF729FFE6E781
:1010B00015F8010BFFF724FFE9E72046FFF795FF3E
:1010C000102EEBD1002DE8D129460120FFF745FF76
:1010D000E3E710B590B02822002106A800F0BEF981
:1010E0001422002101A800F0B9F9012306934FF45E
:1010F0008033022407930E934FF4802306A80F93A6
:101100000D94FFF779FC00210F2301A801930294AD
:10111000039104910591FFF751FE10B010BD00003E
:1011200070B5AEB0FFF7A0F8FFF7D3FF1022002193
:1011300019A800F093F94A4B4FF440719A69494855
:1011400042F010029A619A69002402F010020092A3
:10115000009A9A69012642F020029A619A69022552
:1011600002F020020192019A9A6942F004029A6107
:101170009A6902F004020292029A9A6942F0080205
:101180009A619B69002203F008030393039BFFF716
:10119000DFF94FF4407319A9324819931A961B943A
:1011A0001C95FFF7EDF819A92F4819961A941B956D
:1011B000FFF7E6F82D4A2E482E4B846080E80C009D
:1011C0004FF48043C460036144618461C46104627C
:1011D000FFF7A0FAFFF7CDFE2748FFF706FF4FF411
:1011E0007A70FFF75FF8FFF7ADFE21462046FFF764
:1011F000B4FE04A90846FFF701FF204B19A8059388
:10120000FFF7FCFE1E4B32201A931991FFF702FFE5
:101210001C4B154E1B901C9301213046FFF792F991
:1012200088B1002501213046FFF78CF948B9642DBB
:1012300009DDFFF787FE6CB91998FFF701FF01245C
:10124000EAE70135EEE72CB1002CF5D119A8FFF73C
:10125000F7FEE1E719A8FFF7F3FE0024DCE700BF83
:1012600000100240001001400008014000540040FE
:101270002C000020A086010024150008301500086D
:1012800043150008541500080E4B82B09A6942F0CD
:1012900001029A619A6902F001020092009ADA69E9
:1012A00042F08052DA61DB69074A03F08053019310
:1012B000019B536823F0E06343F00073536002B076
:1012C000704700BF001002400000014010B5044606
:1012D00086B01022002102A800F0C0F82268114B4D
:1012E0009A421CD1104C02A9A369104843F008038C
:1012F000A361A36903F008030093009BC02302933A
:101300001223039303230593FFF73AF8E36943F4A9
:101310000013E361E36903F400130193019B06B03A
:1013200010BD00BF0054004000100240000C0140FE
:101330007047FEE7FEE7FEE7FEE77047704770473D
:10134000FEF79EBF104B1A6842F001021A605968FE
:101350000E4A0A405A601A6822F0847222F48032DF
:101360001A601A6822F480221A605A6822F4FE0277
:101370005A604FF41F029A600022DA624FF0006256
:10138000034B9A60704700BF001002400000FFF856
:1013900000ED00E0002103E00B4B5B5843500431AB
:1013A0000A480B4B42189A42F6D30A4A02E000233D
:1013B00042F8043B084B9A42F9D3FFF7C3FF00F011
:1013C0000FF8FFF7ADFE7047A415000800000020DD
:1013D0000C0000200C000020A0000020FEE7000010
:1013E00070B500250C4E0D4CA41BA410A54209D1CC
:1013F00000F07CF800250A4E0A4CA41BA410A5425C
:1014000005D170BD56F8253098470135EEE756F8FE
:10141000253098470135F2E79C1500089C15000817
:101420009C150008A0150008931E222B10B50C4631
:1014300004D900231C460B70204610BD0A2A09D18E
:10144000002807DA2D230B7001214042214400F0CF
:101450000DF8F1E70021F9E7FFF7E6BF0346024484
:10146000934200D1704703F8011BF9E7F0B58BB048
:1014700003460F466D461C4C04F1200E2E46206894
:101480006168083403C674453546F7D12179206870
:101490003171911E222930604FF0000104D939705A
:1014A0000F4638460BB0F0BD781E0646B3FBF2F58A
:1014B00002FB15330DF1280E734413F8283C4C1C25
:1014C00006F8013F2B4665B93D557A18CC1AA34260
:1014D000E7DA44781578013300F8015F02F8014932
:1014E000F4E72146E2E700BF75150008F8B500BF34
:1014F000F8BC08BC9E467047F8B500BFF8BC08BCF5
:041500009E4670474C
:1015040002030405060708090A0B0C0D0E0F101040
:101514000102030405060708090A0B0C0D0E0F103F
:1015240048454C4C4F20574F524C44005365636F11
:101534006E642073637265656E2074657374005401
:10154400656D70657261747572652069733A200007
:101554002064656772656573000000000000000088
:101564000001020304060708090000000001020349
:101574000430313233343536373839616263646567
:10158400666768696A6B6C6D6E6F7071727374757F
:08159400767778797A000000F7
:04159C00F50100084D
:0415A000D10100086D
:0C15A40001000000100000000024F40012
:040000050800139547
:00000001FF
